:020000040800F2
:10000000380400202D1100083D1000083F100008A2
:1000100041100008431000084510000800000000CF
:100020000000000000000000000000004710000871
:1000300049100008000000004B1000084D10000897
:100040003D11000841110008451100084911000840
:100050004D110008511100085511000859110008F0
:100060005D110008611100086511000869110008A0
:100070006D11000871110008751100087911000850
:100080007D11000881110008851100085110000839
:100090005510000861100008891100088D11000832
:1000A0009111000895110008991100089D11000890
:1000B000A1110008A5110008A9110008AD11000840
:1000C000B1110008B5110008B9110008BD110008F0
:1000D000C1110008C5110008C9110008CD110008A0
:1000E00063100008D1110008D51100082DE9F8436C
:1000F000040016D02078DFF84864C10713D5706873
:1001000000F00C00042807D0706800F00C000828EC
:1001100041D17068C1033ED53068810303D5606862
:10012000002800F064812078DFF82474810719D555
:10013000706810F00C0F07D0706800F00C000828F1
:1001400061D17068C1035ED43068810703D520692E
:10015000012840F04C813168606921F0F80141EAE2
:10016000C00131602178080740F18180A069DFF883
:10017000E413002800F0A68001220A6000F01CFAB7
:100180000546706A810763D400F016FA401B022806
:10019000F7D903202EE16068B0F5803F04D13068C4
:1001A00040F48030306014E008B930680AE0B0F5FF
:1001B000A02F306806D140F480203060316841F4CF
:1001C000803105E020F480303060316821F48021F6
:1001D0003160606858B100F0EFF90546306881037E
:1001E000A1D400F0E9F9401B6528F7D3D1E700F06E
:1001F000E3F905463068810395D500F0DDF9401B31
:100200006528F7D3C5E72069A8B10121396000F05E
:10021000D3F905463068810705D400F0CDF9401BBD
:100220000228F7D9B5E73068616920F0F80040EAA4
:10023000C100306096E7386000F0BEF905463168CD
:1002400088078FD500F0B8F9401B0228F7D9A0E73E
:10025000DFF8F0020168C9084FF47A72B1FBF2F2DC
:10026000009200BF0098411E00280091F9D120782B
:1002700041076ED5F0690025C10009D4F06940F04E
:100280008050F0610125F06900F0805000900098E6
:10029000DFF8C482D8F80000C10520D4D8F80000E7
:1002A00040F48070C8F8000000F086F98146D8F864
:1002B0000000C10513D400F07FF9A0EB0900652808
:1002C000F5D366E7086000F077F90546706A8107A4
:1002D000CDD500F071F9401B0228F7D959E7E06845
:1002E000012808D008B9306A09E00528306A06D12B
:1002F00040F004003062306A40F0010005E0400840
:1003000040003062306A20F00400306241F28938E7
:10031000E06860B100F050F98146306A810713D47B
:1003200000F04AF9A0EB09004045F6D331E700F0B0
:1003300043F98146306A810706D500F03DF9A0EB0C
:1003400009004045F6D324E71DB1F06920F0805044
:10035000F061E06900284CD0716801F00C010829B7
:1003600038D002282AD100F047F8054630688101CC
:1003700005D500F021F9401B0228F7D909E7206ACA
:10038000B0F5803F05D17168A06821F400310143C8
:1003900071607268206A616A22F4741202430A432F
:1003A0007260012000F029F804463068810120D4F1
:1003B00000F002F9001B0228F7D9EAE600F01CF869
:1003C00004463068810114D500F0F6F8001B0228BD
:1003D000F7D9DEE601280AD07068226A00F480317D
:1003E000914202BF00F47010616A884201D001207E
:1003F00000E00020BDE8F2830020386600F0DCB8A1
:100400002DE9F041040088464ED0544E00F077F8B4
:1004100002D200F06FF847D12068494D810712D50C
:10042000400703D5696841F4E061696020780107FD
:1004300003D5686840F4605068606968A06821F07E
:10044000F001014369602178C80725D5606801285B
:1004500002D129688A0303E00228296802D18A01AF
:1004600002D421E08A071FD56968890840EA810023
:10047000686000F0A1F807466868616800F00C0049
:10048000B0EB810F08D000F097F8C01B41F2893122
:100490008842F1D303202BE0306800F0070080454C
:1004A00004D200F027F801D0012021E02078410794
:1004B00005D56A68E06822F4E06202436A60217848
:1004C000080706D56968206921F4605141EAC00136
:1004D000696000F019F86A6821491A4BC2F30312E7
:1004E000895CC84018601948006800F06BF800206B
:1004F000BDE8F0813168C90848EAC101316030685F
:1005000000F007004045704716490F480A6802F09E
:100510000C03082B00D0704710B500BF13A4C2F322
:100520008343D203E35C08D50968584313A3C1F39E
:100530004041595CB0FBF1F010BD0B48584310BD71
:10054000001002400C00002000127A000800002079
:1005500000004242800442420070004000200240FD
:100560001C1100080410024000093D0002030405AC
:10057000060708090A0B0C0D0E0F1010010230B50A
:10058000016884684218416802EB5103C90703D52A
:100590004C4401E0491C08D19A4218BF12F9011BD2
:1005A00001D10C3030BD12F8015B002904F8015B69
:1005B000F0D4491EF7D5EFE701484068704700BF07
:1005C0000000002038B50D4D0D4B2A7804464FF43D
:1005D0007A711868B1FBF2F2B0FBF2F000F054F857
:1005E00050B9102C08D2002221464FF0FF3000F005
:1005F00023F8AC60002032BD012032BD0000002095
:100600000C0000200901020002D4284881547047E0
:10061000274B02F00F021A4402F8041C7047254BC6
:1006200019684FF6FF020002114000F4E060084331
:10063000214908431860704770B51E4B1C68C4F30D
:1006400002230124C3F10705052D2EBF0F2504FA4F
:1006500005F56D1E1E1D072E34BF0023DB1E29402D
:10066000994004FA03F3BDE870405B1E1A40114341
:10067000C8E7010007D4012200F01F010F4B8A4098
:10068000400943F820207047401EB0F1807F01D31D
:10069000012070470A490B4A48600023F02010707F
:1006A0008B600720086000207047000000E400E035
:1006B00018ED00E00CED00E00000FA0500E100E0BC
:1006C00010E000E023ED00E038B5040022D094F8FB
:1006D000200010B9204600F029FA00F080F8054605
:1006E00020684168C80705D4FFF766FF401B0B2848
:1006F000F6D30DE000F06CF8FFF75EFF05462068CA
:100700004168880708D5FFF757FF401B0B28F6D331
:1007100000F056F8012032BD207E012806D1216864
:1007200008680A4640F08000106005E02068016813
:10073000024621F080011160607E00F03DF80CBFA0
:1007400041F0400121F040010160A07E00F034F84A
:100750000CBF41F0200121F020010160E07E00F09B
:100760002BF80CBF21F0100141F010010160207F37
:1007700000F022F80CBF41F0080121F008010160EF
:10078000607F00F019F80CBF41F0040121F0040172
:100790000160A268E0682169024360690A436168F8
:1007A00002432068491E0A43C261002161620120A0
:1007B00084F82000002032BD0128206801687047BD
:1007C000606A40F400306062052184F820107047B0
:1007D00020680168024621F002011160704720681C
:1007E000016841F001010160FFF7E6BE41620120AE
:1007F000F0BDF0B590F82040012C18BF022C72D14A
:100800000029046801D1E56800E0256915F0030FAF
:1008100003D1416A41F4001168E00D0104F5D87676
:10082000775917F004079760066806F5D87603D164
:100830007659760D166002E07459E4085460046835
:1008400004F5D876775907F00207D760046804F5F5
:10085000DA74665906F00F06082E2EBF0824645974
:1008600004F00F041461046804F5DA767759C7F3CD
:1008700007249461046804F5DA7677593F0C5761D0
:1008800002682A44D2F8B8411C7006682E44D6F893
:10089000B821120A5A7004682C44D4F8B821120CFA
:1008A0009A7004682C44D4F8B821120EDA7000F063
:1008B0001EF81A7100F01BF8120A5A7100F017F8AE
:1008C000120C9A7100F013F8120EDA71006821B957
:1008D000C16841F02001C16003E0016941F02001DD
:1008E00001610020F0BD416A41F480217EE7046887
:1008F0002C44D4F8BC2170472DE9F84F05464FF041
:10090000000828684669D0F804B08468D0F80C90D4
:10091000D0F810A08769F10745D5E20713D501216A
:100920008160A00703D5284600F06EF90BE0600750
:1009300048BF4FF4006806D420074EBF4FF48058DC
:10094000284600F062F9E00515D52A684FF4807159
:10095000A005916003D5284600F058F90BE060052A
:1009600048BF48F4005806D420054EBF48F48048DC
:10097000284600F04CF9E00315D52A684FF4803181
:10098000A003916003D5284600F042F90BE0600314
:1009900048BF48F4004806D420034EBF48F48038CE
:1009A000284600F036F9300748BF5FEAC96104D530
:1009B0002968102048F40078C860700748BF5FEAD3
:1009C000097105D508202A68D060284600F022F970
:1009D000B00707D52968C86810F0030F1CBF284668
:1009E00000F0FCF8700648BF5FEACA6104D52968C8
:1009F000102048F480680861B00648BF5FEA0A71B9
:100A000005D508202A681061284600F004F9F00690
:100A100007D52968086910F0030F1CBF284600F0AD
:100A2000FBF8B00348BF5FEACB6105D52A68102008
:100A30005060284600F0F1F8F00348BF5FEA0B7100
:100A400005D52A6808205060284600F0E7F83004F1
:100A500040D55FEA4B713AD5F00503D5F90748BF99
:100A600048F00108B00503D5B90748BF48F00208AF
:100A7000700503D5790748BF48F00408300526D52E
:100A800017F0700F23D007F07007102F0CD0202F15
:100A90000DD0302F0ED0402F0FD0502F10D0602F00
:100AA00008BF48F480780DE048F008080AE048F0F4
:100AB000100807E048F0200804E048F0400801E092
:100AC00048F080082868816921F070018161042064
:100AD00029684860B8F1000F09D0686A48EA000840
:100AE000C5F824802846BDE8F24F00F098B8BDE86C
:100AF000F18F000080B53F483F4901600422426009
:100B000000214FF40022C16002614FF080434FF496
:100B1000E00100228360416182618283FFF7D4FD9E
:100B200018B1BDE8014000F0B8B801BD18B585B0F6
:100B3000044610220021684600F0B1F821682E48D2
:100B4000814249D12D482E4C416841F000714160ED
:100B5000416801F0007104910499026842F00802B2
:100B600002604FF48071006800F0080004900022D9
:100B700004980091019202926946204600F09AF88A
:100B80004FF4007002210090019103220392694604
:100B9000204600F08FF81B48016821F4C04141F065
:100BA000E06141F480410160002202211320FFF73F
:100BB00043FD1320FFF75DFD002202211420FFF703
:100BC0003BFD1420FFF755FD002202211520FFF701
:100BD00033FD1520FFF74DFD06B010BD00B589B0FF
:100BE0006B4602AA0021FFF704FE08B100F055F899
:100BF00009B000BD10000020006400401810024041
:100C0000000C014004000140704770477047704776
:100C1000704770477047704770477047704770471C
:100C200080B500F03FF900F005F800F04DF9FFF74E
:100C300061FFFEE700B58FB02822002105A800F073
:100C40002EF814220021684600F029F84FF4803174
:100C50000022069107920D91012005900990022231
:100C60004FF4E0110C920E9105A8FFF73FFA08B17E
:100C700000F013F8022101910F204FF480610090E1
:100C8000002203910292049202216846FFF7B8FB0A
:100C900008B100F002F80FB000BD72B6FEE710B563
:100CA000044610460A460146204600F071F92046E7
:100CB00010BD00002DE9F84F4FF0000E00246B4AE4
:100CC0006B4BDFF8B081DFF8B0B14FF00F0982460F
:100CD0000DE017683840106007E0C2F804C04D68A6
:100CE000ED03F6D51068074317600EF1010E0F688B
:100CF00037FA0EF000F0AA80012000FA0EFC0CEA90
:100D000007076745F1D1486838B301281AD002288F
:100D10001DD003282ED0112816D012281AD0574DD6
:100D2000A8421CBF564DA84217D0564DA8421CBF22
:100D3000554DA84211D0554DA8421CBF544DA84254
:100D40000BD018E0CC6816E0CC68241D13E0CC680A
:100D5000083410E0CC680C340DE0886808B904242D
:100D600009E0012819BF0824CAF814C00824CAF8E9
:100D700010C000E00024B7F5807F03D250464FEA50
:100D80008E0C05E0AEF108050AF104004FEA850C6F
:100D9000056809FA0CF6B54304FA0CF646EA050CA8
:100DA000C0F800C04868C0009FD5D8F8000040F0E7
:100DB0000100C8F800004FEA8E06D8F8005005F090
:100DC0000105009506F00C0C00984FEA9E0053F8C0
:100DD000205009FA0CF6B543DA4508BF00260ED0BC
:100DE0002C4EB24508BF012609D02B4EB24508BF94
:100DF000022604D0294EB2450CBF0326042606FA6B
:100E00000CF646EA050C43F820C0F8434D68D2F8CA
:100E100008C0ED024CBF47EA0C0C00EA0C0CC2F80B
:100E200008C04D68D2F80CC0AD024CBF47EA0C0CAC
:100E300000EA0C0CC2F80CC04D68D2F804C0AD0337
:100E40004CBF47EA0C0C00EA0C0C46E7BDE8F18FFA
:100E500002B9090401617047114A136801460B4247
:100E60001CBF116000F0C7B87047000000040140CB
:100E70000800014018100240000801400000111055
:100E8000000012100000211000002210000031109C
:100E900000003210000C014000100140001401401D
:100EA0001404014080B50748016841F01001016059
:100EB0000320FFF7B4FB0020FFF784FB00F09CF851
:100EC000002002BD0020024018B585B0102200218C
:100ED0006846FFF7E4FE2A482A4C016841F01001F9
:100EE0000160026802F0100204920499026842F064
:100EF00020020260036803F020030493049902684F
:100F000042F008020260036803F0080304930499A6
:100F1000026842F0040202600122006800F004004E
:100F200004904FF4006104982046FFF791FF0022DF
:100F30004FF480412046FFF78BFF4FF400501249D9
:100F4000009001910022029269461048FFF7B2FE1C
:100F50004FF490410091012201920021029102225E
:100F6000039269462046FFF7A5FE002203212820B0
:100F7000FFF762FB2820FFF77CFB06B010BD00BF27
:100F800018100240000C0140000011100010014038
:100F900062F30F2262F31F42401810F0030308D0DF
:100FA000C91A1FD3DB0748BF00F8012D28BF20F85E
:100FB000022D130030B414461546103928BF20E91D
:100FC0003C00FAD8490728BF20E90C0048BF40F888
:100FD000042D890028BF20F8022D48BF00F8012DFC
:100FE00030BC7047C91818BF00F8012DCB0728BFC7
:100FF00000F8012D704770470E4881B0016841F03C
:1010000001010160026802F0010200920099426849
:1010100042F080524260406800F08050009000989A
:101020000548016821F0E06141F08071016001B084
:10103000704700BF1810024004000140FEE7FEE7C1
:10104000FEE7FEE7FEE770477047704700F00EB816
:1010500001E0000000BF0148FFF74EBC1000002077
:10106000F9E74FF40050FFF7F7BE000002494A6865
:10107000087882184A6070470000002010B50749C0
:1010800079441831064C7C44163404E00A68081D83
:10109000114488470146A142F8D110BD0800000064
:1010A00014000000DBF4FFFF300100001A00000014
:1010B0000000002000F00DF8002801D0FFF7DEFF4F
:1010C000AFF300800020AFF30080FFF7A9FD00F030
:1010D00002F80120704700F001B8000007463846CA
:1010E00000F002F8FBE7000080B5AFF30080024A91
:1010F00011001820ABBEFBE72600020005480146A0
:1011000003B4684680F30988AFF30080AFF3008032
:10111000FFF7D0FFA5EDF5FE7047000000000000CE
:101120000000000001020304060708090148804787
:101130000148004719110008FD100008FFF7FEBF25
:10114000FFF7FEBFFFF7FEBFFFF7FEBFFFF7FEBFD3
:10115000FFF7FEBFFFF7FEBFFFF7FEBFFFF7FEBFC3
:10116000FFF7FEBFFFF7FEBFFFF7FEBFFFF7FEBFB3
:10117000FFF7FEBFFFF7FEBFFFF7FEBFFFF7FEBFA3
:10118000FFF7FEBFFFF7FEBFFFF7FEBFFFF7FEBF93
:10119000FFF7FEBFFFF7FEBFFFF7FEBFFFF7FEBF83
:1011A000FFF7FEBFFFF7FEBFFFF7FEBFFFF7FEBF73
:1011B000FFF7FEBFFFF7FEBFFFF7FEBFFFF7FEBF63
:1011C000FFF7FEBFFFF7FEBFFFF7FEBFFFF7FEBF53
:1011D000FFF7FEBFFFF7FEBF0001F9000010FC00A3
:0511E0000124F4D7001A
:04000005080010FDE2
:00000001FF
