:020000040800F2
:1000000000090020891B0008191A00081B1A0008A3
:100010001D1A00081F1A0008211A0008000000001D
:10002000000000000000000000000000231A00088B
:10003000251A000800000000271A0008291A0008E5
:10004000991B00089D1B0008A11B0008A51B0008A8
:10005000A91B0008AD1B0008B11B0008B51B000858
:10006000B91B0008BD1B0008C11B0008C51B000808
:10007000C91B0008CD1B0008D11B0008D51B0008B8
:10008000D91B0008DD1B0008E11B00082D1A000821
:10009000311A00083D1A0008E51B0008E91B00089A
:1000A000ED1B0008F11B0008F51B0008F91B0008F8
:1000B000FD1B0008011C0008051C0008091C0008A5
:1000C0000D1C0008111C0008151C0008191C000854
:1000D0001D1C0008211C0008251C0008291C000804
:1000E0003F1A00082D1C0008311C000838B5040018
:1000F00022D094F8200010B9204600F04AFB00F00E
:100100000AF9054620684168C80705D400F04CFC90
:10011000401B0B28F6D30DE000F0F6F800F044FC8D
:10012000054620684168880708D500F03DFC401B63
:100130000B28F6D300F0E0F8012032BD207E012824
:1001400006D1216808680A4640F08000106005E08A
:1001500020680168024621F080011160607E00F095
:100160003DF80CBF41F0400121F040010160A07E4C
:1001700000F034F80CBF41F0200121F020010160B3
:10018000E07E00F02BF80CBF21F0100141F01001CF
:100190000160207F00F022F80CBF41F0080121F03F
:1001A00008010160607F00F019F80CBF41F0040104
:1001B00021F004010160A268E068216902436069DE
:1001C0000A43616802432068491E0A43C261002154
:1001D0006162012084F82000002032BD01282068DF
:1001E00001687047F0B5066890F82020012A18BF12
:1001F000022A50D106F500720123106840F0010078
:100200001060087DD56900F01F008340DC43254065
:10021000D56106F51175C86906F5107670B9D06814
:100220002040D0604868CF6800F039F80F688868CF
:10023000BFB247EA0047486945F83070C8690128ED
:100240000ED1D0681843D06048680F6800F027F8D6
:10025000CE688868B6B246EA0046486945F830601C
:100260008869002850680CBF204018435060086916
:100270000028506907BF0440546118435061086A60
:10028000012802D1D0690343D361002011684908D5
:1002900049001160F0BD416A41F480219EE080B2C6
:1002A00040EA07404F6946F83700704738B50446C2
:1002B00094F82000012819D1022184F82010206828
:1002C000026852085200026000F06EFB054620688A
:1002D0004168C80707D500F067FB401B0B28F6D321
:1002E00000F00AF806E00020606232BD606A40F467
:1002F00000206062012032BD606A40F4003060621C
:10030000052184F82010704720680168024621F01A
:100310000201116070472068016841F0010101602D
:1003200000F042BBF0B590F820400568AD68012CA4
:1003300018BF022C4FD115F0E05F48D0C5F301641F
:100340000125A5401D6024010368CE6803F5C07532
:100350008B681BB90B6846EA435603E04F6843EAD3
:10036000C7031E432E5105680B6905F5C27633514C
:10037000097D012906D1036803F5C2710D5945F4C1
:1003800080750D519379D17955791B0443EA016346
:10039000117943EA0523056825440B43C5F88C31E0
:1003A0009378D17855781B0443EA01631178026889
:1003B00043EA052322440B43C2F88831006800F564
:1003C000C070015941F0010101510020F0BD416AA6
:1003D00041F4001102E0416A41F4802141620120B0
:1003E000F0BD416A41F4802141620120704701461D
:1003F000002091F82020012A18BF022A0CD1096898
:100400008A68530148BF01208A68130148BF401C15
:100410008968CA0048BF401C7047F0B590F820407A
:10042000012C18BF022C72D10029046801D1E568A3
:1004300000E0256915F0030F03D1416A41F4001172
:1004400068E00D0104F5D876775917F00407976036
:10045000066806F5D87603D17659760D166002E067
:100460007459E4085460046804F5D876775907F0A5
:100470000207D760046804F5DA74665906F00F06BF
:10048000082E2EBF0824645904F00F041461046878
:1004900004F5DA767759C7F307249461046804F504
:1004A000DA7677593F0C576102682A44D2F8B8418E
:1004B0001C7006682E44D6F8B821120A5A700468D7
:1004C0002C44D4F8B821120C9A7004682C44D4F847
:1004D000B821120EDA7000F01EF81A7100F01BF845
:1004E000120A5A7100F017F8120C9A7100F013F802
:1004F000120EDA71006821B9C16841F02001C160B3
:1005000003E0016941F0200101610020F0BD416A72
:1005100041F4802162E704682C44D4F8BC21704780
:1005200090F82020012A18BF022A03D100684269EE
:10053000114300E055E74161002070472DE9F84F75
:1005400005464FF0000828684669D0F804B0846872
:10055000D0F80C90D0F810A08769F10745D5E207D4
:1005600013D501218160A00703D5284600F022FAA7
:100570000BE0600748BF4FF4006806D420074EBF69
:100580004FF48058284600F016FAE00515D52A6881
:100590004FF48071A005916003D5284600F00CFA55
:1005A0000BE0600548BF48F4005806D420054EBF54
:1005B00048F48048284600F000FAE00315D52A6880
:1005C0004FF48031A003916003D5284600F0F6F97E
:1005D0000BE0600348BF48F4004806D420034EBF38
:1005E00048F48038284600F0EAF9300748BF5FEA4F
:1005F000C96104D52968102048F40078C8607007E4
:1006000048BF5FEA097105D508202A68D0602846EE
:1006100000F0D6F9B00707D52968C86810F0030FB5
:100620001CBF284600F04AF9700648BF5FEACA615D
:1006300004D52968102048F480680861B00648BFD6
:100640005FEA0A7105D508202A681061284600F083
:10065000B8F9F00607D52968086910F0030F1CBF28
:10066000284600F0AFF9B00348BF5FEACB6105D57B
:100670002A6810205060284600F0A5F9F00348BF12
:100680005FEA0B7105D52A6808205060284600F003
:100690009BF9300440D55FEA4B713AD5F00503D59C
:1006A000F90748BF48F00108B00503D5B90748BFAE
:1006B00048F00208700503D5790748BF48F00408E0
:1006C000300526D517F0700F23D007F07007102FD4
:1006D0000CD0202F0DD0302F0ED0402F0FD0502F08
:1006E00010D0602F08BF48F480780DE048F008086B
:1006F0000AE048F0100807E048F0200804E048F05D
:10070000400801E048F080082868816921F0700104
:100710008161042029684860B8F1000F09D0686A37
:1007200048EA0008C5F824802846BDE8F24F00F0EA
:100730004CB9BDE8F18F0EE002684368024408300E
:100740005FEAC37C44BF4B445B1E52F804CB43F8C2
:1007500004CB091FF9D150F8041B0029ECD17047D4
:1007600080B57748774901600422426000234FF446
:1007700000224FF4E0018360C36002614161836144
:100780008383FFF7B3FC18B1BDE8014000F0ABB9BB
:1007900001BD18B585B0044610220021684600F05E
:1007A000C1F921686748814249D16748674C41686F
:1007B00041F000714160416801F0007104910499B9
:1007C000026842F0080202604FF48071006800F095
:1007D0000800049000220498009101920292694658
:1007E000204600F0A9F94FF4007002210090019119
:1007F000032203926946204600F09EF9544801689E
:1008000021F4C04141F0E06141F4804101600022E7
:100810000221132000F0A8FA132000F0C2FA0022EF
:100820000221142000F0A0FA142000F0BAFA0022ED
:100830000221152000F098FA152000F0B2FA06B057
:1008400010BD30B587B00C4605920190002203928E
:1008500004923B4D2846FFF7CAFD0028FAD06B46AC
:10086000224601A92846FFF75DFD00281ABF0FF2B6
:10087000E80100200FF2F00100F05EFC07B030BD8F
:1008800080B58AB028220021684600F04BF901218A
:10089000089100220791069205920492009201921B
:1008A0000292039269462648FFF79CFC08B100F0CB
:1008B0001AF901200BB000BD0000000038B58AB065
:1008C00001AB03AA0021FFF7A8FD10B100F00BF95E
:1008D00024E000BF29A100F02FFC059800280CBFE0
:1008E0000FF2A4000FF2AC000090079B039A194985
:1008F0002BA5002000F020FC002407E001A8E1B2B5
:10090000641C425C2946002000F016FC0799E0B206
:100910008842F3D309A1002000F00EFC0BB030BDDB
:1009200010B5FFF7ADFF064C2046FFF7BFFC204691
:10093000BDE810400221FFF7F3BD00000A000000EF
:10094000D40400200064004018100240000C014054
:1009500004000140581A000820202053454E44202E
:100960004552524F520A000020202053454E442049
:10097000535543434553530A0000000052656365D5
:1009800069766564202020005374616E646172642E
:1009900000000000457874656E6465640000000026
:1009A000253032782000000001484068704700BFC1
:1009B0000C000020704770477047704770477047C1
:1009C00070477047704770477047704780B500F0B8
:1009D000C9FB00F00EF800F0D7FBFFF7C1FEFFF7F0
:1009E0009FFF00F001FD00BF40A1002000F0A4FB2C
:1009F000FEE700B58FB02822002105A800F092F88C
:100A000014220021684600F08DF84FF48031002256
:100A1000069107920D9101200590099002224FF452
:100A2000E0110C920E9105A800F0F6FC08B100F060
:100A30005AF8022101910F204FF4806100900022AA
:100A40000391029204920221684600F06FFE08B101
:100A500000F049F80FB000BDB0F5005F00D070475E
:100A60007CB51B4C00F03AF8012830D10A2000F088
:100A70001DFF00F033F8012829D100BF1EA1154C3D
:100A8000002000F059FBA268002A4CBF0FF274004E
:100A90000FF27C000090082322F06042DFF838104B
:100AA0001EA6002000F048FB0025E8B23146225C7B
:100AB000002000F041FB6D1CE8B20828F5DBA068BF
:100AC000214602B0BDE870400822FFF7BABE73BDF0
:100AD0000010014000000020801A00084FF400516F
:100AE000204600F0F7B872B6FEE70000496E697460
:100AF0002E2E2E0A0000000053656E642020202058
:100B000020202000457874656E6465640000000054
:100B10005374616E646172640000000025303258C5
:100B20002000000010B5044610460A460146204643
:100B300000F0D0FE204610BD2DE9F84F4FF0000E1A
:100B400000246E4A6E4BDFF8BC81DFF8BCB14FF079
:100B50000F0982460DE017683840106007E0C2F8C0
:100B600004C04D68ED03F6D51068074317600EF119
:100B7000010E0F6837FA0EF000F0AA80012000FA8B
:100B80000EFC0CEA07076745F1D1486838B3012825
:100B90001AD002281DD003282ED0112816D01228D2
:100BA0001AD05A4DA8421CBF594DA84217D0594DD2
:100BB000A8421CBF584DA84211D0584DA8421CBF96
:100BC000574DA8420BD018E0CC6816E0CC68241D25
:100BD00013E0CC68083410E0CC680C340DE0886871
:100BE00008B9042409E0012819BF0824CAF814C070
:100BF0000824CAF810C000E00024B7F5807F03D2B3
:100C000050464FEA8E0C05E0AEF108050AF10400EB
:100C10004FEA850C056809FA0CF6B54304FA0CF6A0
:100C200046EA050CC0F800C04868C0009FD5D8F857
:100C3000000040F00100C8F800004FEA8E06D8F826
:100C4000005005F00105009506F00C0C00984FEAE5
:100C50009E0053F8205009FA0CF6B543DA4508BF58
:100C600000260ED02F4EB24508BF012609D02E4EC9
:100C7000B24508BF022604D02C4EB2450CBF032655
:100C8000042606FA0CF646EA050C43F820C0F843A1
:100C90004D68D2F808C0ED024CBF47EA0C0C00EAE0
:100CA0000C0CC2F808C04D68D2F80CC0AD024CBFA5
:100CB00047EA0C0C00EA0C0CC2F80CC04D68D2F8E4
:100CC00004C0AD034CBF47EA0C0C00EA0C0C46E72D
:100CD000BDE8F18F8068084018BF0120C0B270479E
:100CE00002B9090401617047114A136801460B42B9
:100CF0001CBF1160FFF7B0BE704700000004014048
:100D000008000140181002400008014000001110C6
:100D1000000012100000211000002210000031100D
:100D200000003210000C014000100140001401408E
:100D3000140401400901020002D42848815470477C
:100D4000274B02F00F021A4402F8041C7047254B8F
:100D500019684FF6FF020002114000F4E0600843FA
:100D6000214908431860704770B51E4B1C68C4F3D6
:100D700002230124C3F10705052D2EBF0F2504FA18
:100D800005F56D1E1E1D072E34BF0023DB1E2940F6
:100D9000994004FA03F3BDE870405B1E1A4011430A
:100DA000C8E7010007D4012200F01F010F4B8A4061
:100DB000400943F820207047401EB0F1807F01D3E6
:100DC000012070470A490B4A48600023F020107048
:100DD0008B600720086000207047000000E400E0FE
:100DE00018ED00E00CED00E00000FA0500E100E085
:100DF00010E000E023ED00E038B50446A068636829
:100E0000421C934205D325682954A260E068401C27
:100E1000E060A268606882420CD12168206900F01D
:100E2000C8FAA168884203D04FF0FF30E06031BDBE
:100E30000021A16031BD00002DE9F84F0746894629
:100E40009246984648460125012102E0B0FBFAF09F
:100E5000491C5045FAD20B9E4046884538BF08468B
:100E60000090F0070A9C17D4B4B1B00702D5B8F1CE
:100E7000000F02D04FF0200B0BE04FF0300B08E0DA
:100E800059463846FFF7B8FFF868641E002803D4B7
:100E900054B10098A042F3D3F96800292ED403E09E
:100EA000A8F101080AFB05F5B8F1010FF8D8B9FB64
:100EB000F5F0504528BF0AFB05F5F8D2A5A1B9FB0E
:100EC000F5F005FB1099095C3846FFF795FFF868C7
:100ED000002803D4B5FBFAF5002DEFD1F0070DD5AE
:100EE00064B1009DA54209D220213846FFF784FF56
:100EF000F868641E002801D4002CF3D1BDE8F18FFE
:100F00002DE9F14F0D46402198B01446039107A8F2
:100F100018990290002204920691059215F8010B8F
:100F2000002800F0ED80252840F0E480002602E053
:100F300046F001066D1C287823280CD02B2807D0FA
:100F40002D28F5D0302808BF46F00206F2D005E083
:100F500046F00406EEE746F00806EBE700270A2114
:100F600004E001FB07006D1CA0F130072A78104651
:100F7000A0F130030A2BF4D32E2A4FF000080BD136
:100F80006D1C04E001FB08006D1CA0F130082878FE
:100F9000A0F130020A2AF5D3287801E015F8010FF4
:100FA0006C2818BF6828F9D0252800F09E805828A2
:100FB00079D063280BD064280FD0702800F0888087
:100FC000732873D075286AD078286CD090E0206898
:100FD0000168021D2260C9B288E0206850F804BB95
:100FE00020605846002848BF404201210A2202E002
:100FF00090FBF2F0491C0A28FADAC246884538BF4D
:101000008A4606F0040937B1BBF1000F02D4B9F1EA
:10101000000F00D07F1EB00702D5B8F1000F0ED030
:10102000F0070CD45FB1BA4509D2202100F082F854
:1010300005987F1E002802D4002FF4D102E0059805
:10104000002855D4BBF1000F03D5CBF1000B2D21A7
:1010500003E0B9F1000F05D02B2100F06BF80598E3
:10106000002845D406F00301022908BFB8F1000F9B
:101070000FD177B1BA4509D2302100F05BF805985D
:101080007F1E002802D4002FF4D102E0059800282A
:101090002ED40196009743460A22594621E000F0DB
:1010A00040F80A221DE000F03CF819E0206850F8F2
:1010B00004AB2060BAF1000F08BF0FF2900A1AF8D3
:1010C000010BA8B100F035F805980028F7D50FE01E
:1010D000206850F8041B206000220823019200932E
:1010E000102202A8FFF7A8FE02E0252100F022F856
:1010F0006D1C01E000F01DF8059800287FF50EAF8B
:101100000598002809DD049A1AB1189807A900F07B
:1011100050F90599049841180591059819B0BDE852
:10112000F08F206850F8041B20600196009743461A
:101130007047014602A85FE60CB480B502AA00928F
:101140006A46FFF7DDFE02BC5DF80CFB284E554CED
:101150004C2900003031323334353637383941428A
:101160004344454680B50748016841F010010160DD
:101170000320FFF7ECFD002000F0E0FB00F0FEFB99
:10118000002002BD0020024018B585B010220021C9
:101190006846FFF7C7FC2A482A4C016841F0100155
:1011A0000160026802F0100204920499026842F0A1
:1011B00020020260036803F020030493049902688C
:1011C00042F008020260036803F0080304930499E4
:1011D000026842F0040202600122006800F004008C
:1011E00004904FF4006104982046FFF779FD012236
:1011F0004FF480412046FFF773FD4FF40050124931
:10120000009001910022029269461048FFF794FC79
:101210004FF490410091012201920021029102229B
:10122000039269462046FFF787FC0022032128200D
:10123000FFF79AFD2820FFF7B4FD06B010BD00BFF0
:1012400018100240000C0140000011100010014075
:1012500010B5DFF8A041A821204600F0B1FB032221
:1012600022610320606104F1A8010FF28C10A061DB
:10127000E1614FF4806222620021A1620022626279
:10128000E1622066102104F595606066A166002089
:1012900020670021E16660670FF2681142420A444C
:1012A000D27B2254401C1028F8D310BD2DE9F843FE
:1012B00005468846EE6814464FF000092F69A86875
:1012C000801BBE4234BFBF1B3F187F1E874228BF12
:1012D0000746A74288BF274668683A4641468019B4
:1012E00000F072FBA968E41BBE19B944B8448E42F1
:1012F00008BF0026002CEE60E0D14846BDE8F2832E
:101300002DE9F0410446E768A56860681646ED1BC4
:10131000AE428846384403D200F056FBF61909E085
:101320002A4600F051FB761B6068324608EB050147
:1013300000F04AFBE660BDE8F08101460869CA6832
:10134000824202D38968491E50E0801A401E7047CD
:1013500070B50C46154600F01CF872691AB1022AE5
:101360000ED005D310E000F012F8A84205D20BE031
:1013700000F00DF8A84298BF054600F016F804E00A
:1013800000F00FF8054600E00025284670BD304605
:10139000D3E71821DFF85C204843104400F1180619
:1013A00070472A462146304680E72A462146304685
:1013B000A6E7F8B50446DFF83C000D46017816466E
:1013C000532918BFFFF744FF00F005F8FFF7C0FFEF
:1013D00087F31188F2BDEFF31187202080F3118885
:1013E000324629462046704732E700008A1A8018A4
:1013F000704700001C0000205465726D696E616CBE
:10140000000000000000000000005454522052452B
:1014100047474553000000002DE9F843040016D06B
:101420002078DFF84864C10713D5706800F00C001D
:10143000042807D0706800F00C00082841D17068BB
:10144000C1033ED53068810303D56068002800F0F1
:1014500064812078DFF82474810719D5706810F052
:101460000C0F07D0706800F00C00082861D170687C
:10147000C1035ED43068810703D52069012840F09C
:101480004C813168606921F0F80141EAC0013160A6
:101490002178080740F18180A069DFF8E413002873
:1014A00000F0A68001220A60FFF77EFA0546706A06
:1014B000810763D4FFF778FA401B0228F7D903208D
:1014C0002EE16068B0F5803F04D1306840F4803090
:1014D000306014E008B930680AE0B0F5A02F306839
:1014E00006D140F480203060316841F4803105E05D
:1014F00020F480303060316821F4802131606068F0
:1015000058B1FFF751FA054630688103A1D4FFF7BF
:101510004BFA401B6528F7D3D1E7FFF745FA05469C
:101520003068810395D5FFF73FFA401B6528F7D354
:10153000C5E72069A8B101213960FFF735FA0546F2
:101540003068810705D4FFF72FFA401B0228F7D92E
:10155000B5E73068616920F0F80040EAC10030600A
:1015600096E73860FFF720FA0546316888078FD57F
:10157000FFF71AFA401B0228F7D9A0E7DFF8F002BC
:101580000168C9084FF47A72B1FBF2F2009200BF11
:101590000098411E00280091F9D1207841076ED5AE
:1015A000F0690025C10009D4F06940F08050F06175
:1015B0000125F06900F0805000900098DFF8C482A7
:1015C000D8F80000C10520D4D8F8000040F480709D
:1015D000C8F80000FFF7E8F98146D8F80000C10517
:1015E00013D4FFF7E1F9A0EB09006528F5D366E70E
:1015F0000860FFF7D9F90546706A8107CDD5FFF776
:10160000D3F9401B0228F7D959E7E068012808D030
:1016100008B9306A09E00528306A06D140F00400B4
:101620003062306A40F0010005E04008400030625E
:10163000306A20F00400306241F28938E06860B11D
:10164000FFF7B2F98146306A810713D4FFF7ACF98E
:10165000A0EB09004045F6D331E7FFF7A5F9814635
:10166000306A810706D5FFF79FF9A0EB09004045D6
:10167000F6D324E71DB1F06920F08050F061E069F5
:1016800000284CD0716801F00C01082938D00228DC
:101690002AD100F047F805463068810105D5FFF7EB
:1016A00083F9401B0228F7D909E7206AB0F5803F8B
:1016B00005D17168A06821F400310143716072683E
:1016C000206A616A22F4741202430A4372600120A4
:1016D00000F029F804463068810120D4FFF764F94E
:1016E000001B0228F7D9EAE600F01CF8044630682F
:1016F000810114D5FFF758F9001B0228F7D9DEE65F
:1017000001280AD07068226A00F48031914202BF39
:1017100000F47010616A884201D0012000E00020CE
:10172000BDE8F28300203866FFF73EB92DE9F041AD
:10173000040088464ED0544E00F077F802D200F0F4
:101740006FF847D12068494D810712D5400703D56E
:10175000696841F4E06169602078010703D5686831
:1017600040F4605068606968A06821F0F0010143AE
:1017700069602178C80725D56068012802D12968E9
:101780008A0303E00228296802D18A0102D421E0F9
:101790008A071FD56968890840EA81006860FFF7F9
:1017A00003F907466868616800F00C00B0EB810F30
:1017B00008D0FFF7F9F8C01B41F289318842F1D314
:1017C00003202BE0306800F00700804504D200F0D1
:1017D00027F801D0012021E02078410705D56A686B
:1017E000E06822F4E06202436A602178080706D5C7
:1017F0006968206921F4605141EAC001696000F024
:1018000019F86A6821491A4BC2F30312895CC8406F
:1018100018601948006800F091F80020BDE8F081D8
:101820003168C90848EAC1013160306800F007003A
:101830004045704716490F480A6802F00C03082B10
:1018400000D0704710B500BF13A4C2F38343D20386
:10185000E35C08D50968584313A3C1F34041595CC0
:10186000B0FBF1F010BD0B48584310BD0010024012
:101870001800002000127A001400002000004242EC
:10188000800442420070004000200240781B0008A3
:101890000410024000093D00020304050607080980
:1018A0000A0B0C0D0E0F10100102000038B5044693
:1018B000FFF77AF814F1010F054602D004490878C1
:1018C0000419FFF771F8401BA042FAD331BD00BFE5
:1018D0000C00002062F30F2262F31F42401810F048
:1018E000030308D0C91A1FD3DB0748BF00F8012D36
:1018F00028BF20F8022D130030B4144615461039C5
:1019000028BF20E93C00FAD8490728BF20E90C008D
:1019100048BF40F8042D890028BF20F8022D48BF99
:1019200000F8012D30BC7047C91818BF00F8012D10
:10193000CB0728BF00F8012D7047000038B50D4DCA
:101940000D4B2A7804464FF47A711868B1FBF2F215
:10195000B0FBF2F0FFF730FA50B9102C08D2002299
:1019600021464FF0FF30FFF7FFF9AC60002032BD99
:10197000012032BD0C000020180000200E4881B06C
:10198000016841F001010160026802F00102009269
:101990000099426842F080524260406800F08050F6
:1019A000009000980548016821F0E06141F08071E5
:1019B000016001B0704700BF1810024004000140F0
:1019C0000022FFF78BBF00004AB1000011F8013B75
:1019D000521E00F8013B1CBF11F8013BF8E77047AD
:1019E00030B4002512E050F8042BD30744BF4A441A
:1019F000521E091F042942F8045BFAD213468C07D1
:101A000044BF15809B1CC90748BF1D7050F8041BBC
:101A10000029E8D130BC7047FEE7FEE7FEE7FEE7AD
:101A2000FEE770477047704700F00EB801E0000015
:101A300000BF0148FEF782BDD4040020F9E74FF44F
:101A40000050FFF751B9000002494A68087882182F
:101A50004A6070470C0000204944203A2025303865
:101A600078207C20444C433A202564207C20494443
:101A7000453A202573207C20446174613A2000009F
:101A800049443A20307825303858207C20444C4353
:101A90003A202564207C204944453A202573207C47
:101AA00020446174613A200010B507497944183127
:101AB000064C7C44163404E00A68081D114488472B
:101AC0000146A142F8D110BD080000002800000026
:101AD00011FFFFFFE00400001C00002000000000D8
:101AE00057ECFFFF1C000000700000000000002009
:101AF0000000000000F00DF8002801D0FFF7D4FF2F
:101B0000AFF300800020AFF30080FEF75FFF00F02E
:101B100002F80120704700F001B80000074638467F
:101B200000F002F8FBE7000080B5AFF30080024A46
:101B300011001820ABBEFBE7260002000548014655
:101B400003B4684680F30988AFF30080AFF30080E8
:101B5000FFF7D0FFA5EDF5FE010203040506070817
:101B6000200500000100000000000000100000003F
:101B70000024F40070470000000000000000000096
:101B8000010203040607080901488047014800478D
:101B9000751B00083D1B0008FFF7FEBFFFF7FEBFE7
:101BA000FFF7FEBFFFF7FEBFFFF7FEBFFFF7FEBF69
:101BB000FFF7FEBFFFF7FEBFFFF7FEBFFFF7FEBF59
:101BC000FFF7FEBFFFF7FEBFFFF7FEBFFFF7FEBF49
:101BD000FFF7FEBFFFF7FEBFFFF7FEBFFFF7FEBF39
:101BE000FFF7FEBFFFF7FEBFFFF7FEBFFFF7FEBF29
:101BF000FFF7FEBFFFF7FEBFFFF7FEBFFFF7FEBF19
:101C0000FFF7FEBFFFF7FEBFFFF7FEBFFFF7FEBF08
:101C1000FFF7FEBFFFF7FEBFFFF7FEBFFFF7FEBFF8
:101C2000FFF7FEBFFFF7FEBFFFF7FEBFFFF7FEBFE8
:041C3000FFF7FEBFFD
:0400000508001B3D97
:00000001FF
